:1000000004308A008B2C00000A108A100A11820723
:1000100028340C3401340634A02ACE24D622D22926
:1000200049224122202245100000CC20A02941264F
:10003000CC22A01620264121C92000012010A02199
:100040004F27C521D422A020D32420100001202B2B
:100050006432202B4937A0244937A0236E32000197
:100060002010201020102010201020102010201010
:10007000000120102010201020102010201020102F
:1000800020100000D6376C3A6135651D253300001D
:10009000C3377239E9326E3A651D253300012010ED
:1000A000A0214F27C521D422A020D3242010000155
:1000B000202B6432202B4937A0244937A0236E32ED
:1000C00000003C30840083130008031975280130B8
:1000D000F800F701F70B6A28F80B6928F130F700F0
:1000E000F70B70280000800B6728080043187A2857
:1000F00006127B280616831606128312C31882285E
:1001000086128328861683168612831243198A283C
:1001100006138B280617831606138312C319922819
:10012000861393288617831686130000881383127C
:1001300088179A28000083168813831288130800F2
:10014000C4018316881383128817000083160616CD
:1001500083124410061A4414831686168312C410A0
:10016000861AC4148316061783124411061B4415FD
:10017000831686178312C411861BC4158316881331
:10018000831288134408F80008008316881283122B
:10019000881283160813831208170000A02078081D
:1001A000C300A0207808C200430EF700F030F70526
:1001B00077084204F8007808C200C21BC928C008AA
:1001C0000319E7288316881283128816EB288316F2
:1001D00088128312881200008316081383120813F2
:1001E00000008316881383128813410EC2000F305B
:1001F000C2054208C300762041080F39C200C3007F
:10020000762008008316881283128812831608133A
:100210008312081383168813831288130F30BC00CF
:100220006120AE012E08023C031C1E290330C300CE
:1002300076200530BC006120AE0A12290230C300CE
:100240007620AE012E08033C031C2F292E08042023
:10025000AF00C0012F08C100C520AE0A22298A11B3
:100260000A12AA2C3D0B352938294030BE00392905
:10027000BE0101303C02BE073E088038BF00C0010D
:100280003F08C100C52008003B080C3A03194F295C
:10029000063A03195729023A03195D296229C00158
:1002A0000130C100C5200230BC0061206829013046
:1002B000BC000230BD0032216829C0011030C100ED
:1002C000C52068290130C0003B08C100C52068294D
:1002D0000800831603178C170C140000000083120B
:1002E0000C087F390319AD290313AE0003170D085D
:1002F0000313AF0003170F080313B0002E08BB0051
:1003000044212F0803178D000313300803178F00B3
:1003100083168C170C140000000083120C0D0E0DB8
:100320007F390319AD290313AE0003170D0803131A
:10033000AF0003170F080313B0002E08BB004421C1
:100340002F0803178D000313300803178F008D0A41
:1003500003198F0A031369290317031308008E304A
:10036000F7002F08F8002E08F900FA01F808031D1D
:10037000C3297908F800F9010830F702F808031DCD
:10038000C329F701CB290310F81BCA29F90DF80D71
:10039000F703C329F81308003B0803193C2AC300DC
:1003A0003F0803193C2AC3070318DD297F30C30225
:1003B000031C3C2A03193C2AE1298130C307031896
:1003C0003C2A4308F700F801F901FA013C08C7008C
:1003D000C7173D08C6003E08C5001830C300C40159
:1003E000451C0A2A4208FA07031CFC29F90A031DC6
:1003F000FC29F80A0319C4174108F907031C032A4A
:10040000F80A0319C4174008BD00BD173D08F807D6
:100410000318C417C40DF80CF90CFA0CC70CC60C61
:10042000C50C0310C30BEF290130F70703183C2A52
:10043000F81B212AC70DFA0DF90DF80DF703031962
:100440003C2AC71F322AFA0A031D322AF90A031D61
:10045000322AF80A031D322AF80CF90CFA0CF70AB2
:1004600003193C2A3C08C4004008C406C41F3A2AA9
:10047000F817402AF813402AF701F801F901FA01A8
:100480000800831603178C170C14000000000318D3
:10049000702A83120C087F390313AF0003170D086D
:1004A0000313B00003170F080313B1002F08BB009C
:1004B0004421300803178D000313310803178F0000
:1004C00083168C170C140000000083120313AE0B6C
:1004D0006A2A6D2A83160317702A8F2A8316031738
:1004E00083120C0D0E0D7F390313AF0003170D0897
:1004F0000313B00003170F080313B1002F08BB004C
:100500004421300803178D000313310803178F00AF
:100510008D0A03198F0A03100313AE0B412A08003A
:100520008318952A433084008313F701F801F901F9
:10053000FA01C301C401C501C601420841044004D7
:100540003F040319D32A2030C7000310BB0DBC0D94
:10055000BD0DBE0DC30DC40DC50DC60D420846022E
:10056000031DBC2A41084502031DBC2A4008440261
:10057000031DBC2A3F084302031CCD2A3F08C302C7
:100580004008031C400FC4024108031C410FC50270
:100590004208031C420FC6020314F70DF80DF90DB3
:1005A000FA0DC70BA52A43088000840A440880007E
:1005B000840A45088000840A460880000800040870
:1005C000B3003208B5000319FE2A3108BE00300816
:1005D000BD002F08BC002E08BB00C201C1012030A5
:1005E000C0008230BF00CC217A08B1007908B00089
:1005F0007808AF007708AE00B50BE52A3108BE00D9
:100600003008BD002F08BC002E08BB003B08B63CDC
:10061000BB00FA013C08BF00BC170310BC0CBD0CAA
:10062000BE0CFA0CF90CF80CF70CBB0B0D2BBF1F12
:10063000242BF709F809F909FA09F70A0319F80A46
:100640000319F90A0319FA0A7A08B1007908B00007
:100650007808AF007708AE00B11F3B2BB303B31689
:10066000AE09AF09B009B109AE0A0319AF0A0319FF
:10067000B00A0319B10A3B30BA009A30B900CA3047
:10068000B800B7010A30B50032080319B30A831461
:100690002E30840083133108BE003008BD002F08BF
:1006A000BC002E08BB003A08C2003908C100380857
:1006B000C0003708BF0090227808F708031D732B8D
:1006C000320A35020319732B33080319752B0F39BE
:1006D000350203196D2B0318A52BB31BA52B331B58
:1006E000752B2030A12B2030B305B31E832BB31202
:1006F0003208031DB3037708B3002D30BB0044213B
:100700003308F700B30132083502031D912B770837
:10071000B3002E30BB0044213308F7002030B3056E
:1007200000303030B31EA12BB3123208031DB303C7
:100730007708B3002D30BB0044213308F700B30124
:100740003030F7077708BB00442183103A08BE0019
:100750003908BD003808BC003708BB00C201C10120
:10076000C0010A30BF0090227A08BA007908B900A7
:100770007808B8007708B700B50B472B08002E089B
:100780000319842CBA0032080319842CBA02031C02
:10079000CE2B7F30BA070318842CD42B8130BA02B9
:1007A000031C842C0319842C3A08F700F801F90182
:1007B000FA01B9012F08B800B8173008B70031089E
:1007C000B6001930BA003508B6020318F72B01300D
:1007D000B7020318F72BB8020318F72BB902031856
:1007E000F72BB90AB80AB70A3508B607292C340816
:1007F000B7020318122C0130B8020318122CB902E8
:100800000318122CB90AB80A3408B7073508B60716
:10081000031C292CB70A031D292CB80A031D292CF7
:10082000B90A292C33088038B8020318282C013063
:10083000B9020318282CB90A33088038B8073408DD
:10084000B707031C062CB80A031D062CB90A062C90
:100850007A14BA0B2C2C372C0310B60DB70DB80D2B
:10086000B90D0310FA0DF90DF80DBB0DE32B3B1C70
:100870003F2C0310F80CF90CFA0CBB0C422CF703BC
:100880000319842CBB1B6B2C0310B60DB70DB80DD0
:10089000B90D3508B6020318572C0130B7020318FA
:1008A000572CB8020318572CB902031C7A2C3408B1
:1008B000B7020318622C0130B8020318622CB90287
:1008C000031C7A2C33088038B80203186B2C0130D3
:1008D000B902031C7A2CFA0A031D7A2CF90A031DAB
:1008E0007A2CF80A031D7A2CF70A0319842CF80CC9
:1008F000F90CFA0C2F08BA003308BA06BA1F822C7A
:10090000F817882CF813882CF701F801F901FA017F
:100910008A110A12A02D840183131F3083058316C8
:100920001F149F141F159F1107309C00FF30850076
:100930008601870188011F1383121F179F178316D3
:100940009F1383121F1483161F109F101F159F11D2
:10095000831202290130BC00BD0032210C30031784
:100960008D0000308F00031369210130BC0002307C
:10097000BD003221153003178D0000308F000313A6
:1009800069210430AE00FA30BC006120AE0BC32CEC
:100990001E3003178D0000308F00031369210130D2
:1009A000BC000230BD003221273003178D0000301B
:1009B0008F00031369210130BC00BD0032213030AB
:1009C00003178D0000308F00031369210130BC0034
:1009D0000230BD003221393003178D0000308F0006
:1009E000031369210030F8001F08C73978049F00FD
:1009F0001430BC0061201F151F19FC2C1E08A0001C
:100A00006430BC0061200830F8001F08C739780442
:100A10009F001430BC0061201F151F190D2D1E08EA
:100A2000A100A008031D162D0030172D0130AE00C7
:100A3000A108031D1D2D00301E2D01302E050319A8
:100A4000DC2D0030F8001F08C73978049F001430EF
:100A5000BC0061201F151F192B2D1E08A000AF011F
:100A60002008AE00AF217A08BE007908BD007808E2
:100A7000BC007708BB00C201C1012030C0007B3040
:100A8000BF00CC217A08A5007908A4007808A3004B
:100A90007708A2000130BC00BD00322142300317AC
:100AA0008D0000308F00031008300313AE00412288
:100AB000893084002508B1002408B0002308AF0065
:100AC0002208AE000230B200DF226430BC00612098
:100AD0000830F8001F08C73978049F001430BC00A4
:100AE00061201F151F19722D1E08A100AF012108DA
:100AF000AE00AF217A08BE007908BD007808BC00BE
:100B00007708BB00C201C1012030C0007930BF00AE
:100B1000CC217A08A9007908A8007808A7007708EE
:100B2000A6002908B1002808B0002708AF00260851
:100B3000AE00B501B4015C30B3008630B200BF2B0B
:100B40007A08AD007908AC007808AB007708AA00F5
:100B50002D08BE002C08BD002B08BC002A08BB00D5
:100B6000C201C1017A30C0008830BF00CC217A08B0
:100B7000AD007908AC007808AB007708AA00013016
:100B8000BC000230BD003221483003178D00003018
:100B90008F0003100A300313AE0041228930840015
:100BA0002D08B1002C08B0002B08AF002A08AE00B9
:100BB0000230B200DF22112D0130BC00BD00322115
:100BC0004F3003178D0000308F000313692101306F
:100BD000BC000230BD003221583003178D000030B8
:0A0BE0008F0003136921F22C63005B
:02400E00713F00
:00000001FF
;PIC16F877A
;CRC=B867  CREATED="14-dic-11 10:13"
